{
  "contractName": "SushiMaker",
  "abi": [
    {
      "inputs": [
        {
          "internalType": "contract IEZZCFactory",
          "name": "_factory",
          "type": "address"
        },
        {
          "internalType": "address",
          "name": "_bar",
          "type": "address"
        },
        {
          "internalType": "address",
          "name": "_sushi",
          "type": "address"
        },
        {
          "internalType": "address",
          "name": "_weth",
          "type": "address"
        }
      ],
      "stateMutability": "nonpayable",
      "type": "constructor"
    },
    {
      "inputs": [],
      "name": "bar",
      "outputs": [
        {
          "internalType": "address",
          "name": "",
          "type": "address"
        }
      ],
      "stateMutability": "view",
      "type": "function"
    },
    {
      "inputs": [],
      "name": "factory",
      "outputs": [
        {
          "internalType": "contract IEZZCFactory",
          "name": "",
          "type": "address"
        }
      ],
      "stateMutability": "view",
      "type": "function"
    },
    {
      "inputs": [],
      "name": "sushi",
      "outputs": [
        {
          "internalType": "address",
          "name": "",
          "type": "address"
        }
      ],
      "stateMutability": "view",
      "type": "function"
    },
    {
      "inputs": [],
      "name": "weth",
      "outputs": [
        {
          "internalType": "address",
          "name": "",
          "type": "address"
        }
      ],
      "stateMutability": "view",
      "type": "function"
    },
    {
      "inputs": [
        {
          "internalType": "address",
          "name": "token0",
          "type": "address"
        },
        {
          "internalType": "address",
          "name": "token1",
          "type": "address"
        }
      ],
      "name": "convert",
      "outputs": [],
      "stateMutability": "nonpayable",
      "type": "function"
    }
  ],
  "bytecode": "0x608060405234801561001057600080fd5b50604051611bfa380380611bfa8339818101604052608081101561003357600080fd5b8101908080519060200190929190805190602001909291908051906020019092919080519060200190929190505050836000806101000a81548173ffffffffffffffffffffffffffffffffffffffff021916908373ffffffffffffffffffffffffffffffffffffffff16021790555081600260006101000a81548173ffffffffffffffffffffffffffffffffffffffff021916908373ffffffffffffffffffffffffffffffffffffffff16021790555082600160006101000a81548173ffffffffffffffffffffffffffffffffffffffff021916908373ffffffffffffffffffffffffffffffffffffffff16021790555080600360006101000a81548173ffffffffffffffffffffffffffffffffffffffff021916908373ffffffffffffffffffffffffffffffffffffffff16021790555050505050611a82806101786000396000f3fe608060405234801561001057600080fd5b50600436106100575760003560e01c80630a0879031461005c5780633fc8cef314610090578063bd1b820c146100c4578063c45a015514610128578063febb0f7e1461015c575b600080fd5b610064610190565b604051808273ffffffffffffffffffffffffffffffffffffffff16815260200191505060405180910390f35b6100986101b6565b604051808273ffffffffffffffffffffffffffffffffffffffff16815260200191505060405180910390f35b610126600480360360408110156100da57600080fd5b81019080803573ffffffffffffffffffffffffffffffffffffffff169060200190929190803573ffffffffffffffffffffffffffffffffffffffff1690602001909291905050506101dc565b005b610130610585565b604051808273ffffffffffffffffffffffffffffffffffffffff16815260200191505060405180910390f35b6101646105a9565b604051808273ffffffffffffffffffffffffffffffffffffffff16815260200191505060405180910390f35b600260009054906101000a900473ffffffffffffffffffffffffffffffffffffffff1681565b600360009054906101000a900473ffffffffffffffffffffffffffffffffffffffff1681565b3273ffffffffffffffffffffffffffffffffffffffff163373ffffffffffffffffffffffffffffffffffffffff161461027d576040517f08c379a000000000000000000000000000000000000000000000000000000000815260040180806020018281038252601c8152602001807f646f206e6f7420636f6e766572742066726f6d20636f6e74726163740000000081525060200191505060405180910390fd5b60008060009054906101000a900473ffffffffffffffffffffffffffffffffffffffff1673ffffffffffffffffffffffffffffffffffffffff1663e6a4390584846040518363ffffffff1660e01b8152600401808373ffffffffffffffffffffffffffffffffffffffff1681526020018273ffffffffffffffffffffffffffffffffffffffff1681526020019250505060206040518083038186803b15801561032557600080fd5b505afa158015610339573d6000803e3d6000fd5b505050506040513d602081101561034f57600080fd5b810190808051906020019092919050505090508073ffffffffffffffffffffffffffffffffffffffff1663a9059cbb828373ffffffffffffffffffffffffffffffffffffffff166370a08231306040518263ffffffff1660e01b8152600401808273ffffffffffffffffffffffffffffffffffffffff16815260200191505060206040518083038186803b1580156103e657600080fd5b505afa1580156103fa573d6000803e3d6000fd5b505050506040513d602081101561041057600080fd5b81019080805190602001909291905050506040518363ffffffff1660e01b8152600401808373ffffffffffffffffffffffffffffffffffffffff16815260200182815260200192505050602060405180830381600087803b15801561047457600080fd5b505af1158015610488573d6000803e3d6000fd5b505050506040513d602081101561049e57600080fd5b8101908080519060200190929190505050508073ffffffffffffffffffffffffffffffffffffffff166389afcb44306040518263ffffffff1660e01b8152600401808273ffffffffffffffffffffffffffffffffffffffff1681526020019150506040805180830381600087803b15801561051857600080fd5b505af115801561052c573d6000803e3d6000fd5b505050506040513d604081101561054257600080fd5b8101908080519060200190929190805190602001909291905050505050600061056a836105cf565b610573856105cf565b01905061057f81610fe5565b50505050565b60008054906101000a900473ffffffffffffffffffffffffffffffffffffffff1681565b600160009054906101000a900473ffffffffffffffffffffffffffffffffffffffff1681565b6000600260009054906101000a900473ffffffffffffffffffffffffffffffffffffffff1673ffffffffffffffffffffffffffffffffffffffff168273ffffffffffffffffffffffffffffffffffffffff1614156107045760008273ffffffffffffffffffffffffffffffffffffffff166370a08231306040518263ffffffff1660e01b8152600401808273ffffffffffffffffffffffffffffffffffffffff16815260200191505060206040518083038186803b15801561069057600080fd5b505afa1580156106a4573d6000803e3d6000fd5b505050506040513d60208110156106ba57600080fd5b810190808051906020019092919050505090506106fa83600160009054906101000a900473ffffffffffffffffffffffffffffffffffffffff1683611501565b6000915050610fe0565b600360009054906101000a900473ffffffffffffffffffffffffffffffffffffffff1673ffffffffffffffffffffffffffffffffffffffff168273ffffffffffffffffffffffffffffffffffffffff1614156109375760008273ffffffffffffffffffffffffffffffffffffffff166370a08231306040518263ffffffff1660e01b8152600401808273ffffffffffffffffffffffffffffffffffffffff16815260200191505060206040518083038186803b1580156107c357600080fd5b505afa1580156107d7573d6000803e3d6000fd5b505050506040513d60208110156107ed57600080fd5b8101908080519060200190929190505050905061092e8360008054906101000a900473ffffffffffffffffffffffffffffffffffffffff1673ffffffffffffffffffffffffffffffffffffffff1663e6a43905600360009054906101000a900473ffffffffffffffffffffffffffffffffffffffff16600260009054906101000a900473ffffffffffffffffffffffffffffffffffffffff166040518363ffffffff1660e01b8152600401808373ffffffffffffffffffffffffffffffffffffffff1681526020018273ffffffffffffffffffffffffffffffffffffffff1681526020019250505060206040518083038186803b1580156108ed57600080fd5b505afa158015610901573d6000803e3d6000fd5b505050506040513d602081101561091757600080fd5b810190808051906020019092919050505083611501565b80915050610fe0565b60008060009054906101000a900473ffffffffffffffffffffffffffffffffffffffff1673ffffffffffffffffffffffffffffffffffffffff1663e6a4390584600360009054906101000a900473ffffffffffffffffffffffffffffffffffffffff166040518363ffffffff1660e01b8152600401808373ffffffffffffffffffffffffffffffffffffffff1681526020018273ffffffffffffffffffffffffffffffffffffffff1681526020019250505060206040518083038186803b158015610a0157600080fd5b505afa158015610a15573d6000803e3d6000fd5b505050506040513d6020811015610a2b57600080fd5b81019080805190602001909291905050509050600073ffffffffffffffffffffffffffffffffffffffff168173ffffffffffffffffffffffffffffffffffffffff161415610a7d576000915050610fe0565b6000808273ffffffffffffffffffffffffffffffffffffffff16630902f1ac6040518163ffffffff1660e01b815260040160606040518083038186803b158015610ac657600080fd5b505afa158015610ada573d6000803e3d6000fd5b505050506040513d6060811015610af057600080fd5b81019080805190602001909291908051906020019092919080519060200190929190505050506dffffffffffffffffffffffffffff1691506dffffffffffffffffffffffffffff16915060008373ffffffffffffffffffffffffffffffffffffffff16630dfe16816040518163ffffffff1660e01b815260040160206040518083038186803b158015610b8257600080fd5b505afa158015610b96573d6000803e3d6000fd5b505050506040513d6020811015610bac57600080fd5b810190808051906020019092919050505090506000808773ffffffffffffffffffffffffffffffffffffffff168373ffffffffffffffffffffffffffffffffffffffff1614610bfc578385610bff565b84845b9150915060008873ffffffffffffffffffffffffffffffffffffffff166370a08231306040518263ffffffff1660e01b8152600401808273ffffffffffffffffffffffffffffffffffffffff16815260200191505060206040518083038186803b158015610c6c57600080fd5b505afa158015610c80573d6000803e3d6000fd5b505050506040513d6020811015610c9657600080fd5b810190808051906020019092919050505090506000610cc06103e58361153190919063ffffffff16565b90506000610cd7848361153190919063ffffffff16565b90506000610d0283610cf46103e88961153190919063ffffffff16565b6115b790919063ffffffff16565b90506000818381610d0f57fe5b0490506000808e73ffffffffffffffffffffffffffffffffffffffff168a73ffffffffffffffffffffffffffffffffffffffff1614610d5057826000610d54565b6000835b91509150610d638f8e89611501565b8c73ffffffffffffffffffffffffffffffffffffffff1663022c0d9f838360008054906101000a900473ffffffffffffffffffffffffffffffffffffffff1673ffffffffffffffffffffffffffffffffffffffff1663e6a43905600360009054906101000a900473ffffffffffffffffffffffffffffffffffffffff16600260009054906101000a900473ffffffffffffffffffffffffffffffffffffffff166040518363ffffffff1660e01b8152600401808373ffffffffffffffffffffffffffffffffffffffff1681526020018273ffffffffffffffffffffffffffffffffffffffff1681526020019250505060206040518083038186803b158015610e6a57600080fd5b505afa158015610e7e573d6000803e3d6000fd5b505050506040513d6020811015610e9457600080fd5b8101908080519060200190929190505050600067ffffffffffffffff81118015610ebd57600080fd5b506040519080825280601f01601f191660200182016040528015610ef05781602001600182028036833780820191505090505b506040518563ffffffff1660e01b8152600401808581526020018481526020018373ffffffffffffffffffffffffffffffffffffffff16815260200180602001828103825283818151815260200191508051906020019080838360005b83811015610f68578082015181840152602081019050610f4d565b50505050905090810190601f168015610f955780820380516001836020036101000a031916815260200191505b5095505050505050600060405180830381600087803b158015610fb757600080fd5b505af1158015610fcb573d6000803e3d6000fd5b50505050829d50505050505050505050505050505b919050565b60008060009054906101000a900473ffffffffffffffffffffffffffffffffffffffff1673ffffffffffffffffffffffffffffffffffffffff1663e6a43905600360009054906101000a900473ffffffffffffffffffffffffffffffffffffffff16600260009054906101000a900473ffffffffffffffffffffffffffffffffffffffff166040518363ffffffff1660e01b8152600401808373ffffffffffffffffffffffffffffffffffffffff1681526020018273ffffffffffffffffffffffffffffffffffffffff1681526020019250505060206040518083038186803b1580156110d157600080fd5b505afa1580156110e5573d6000803e3d6000fd5b505050506040513d60208110156110fb57600080fd5b810190808051906020019092919050505090506000808273ffffffffffffffffffffffffffffffffffffffff16630902f1ac6040518163ffffffff1660e01b815260040160606040518083038186803b15801561115757600080fd5b505afa15801561116b573d6000803e3d6000fd5b505050506040513d606081101561118157600080fd5b81019080805190602001909291908051906020019092919080519060200190929190505050506dffffffffffffffffffffffffffff1691506dffffffffffffffffffffffffffff16915060008373ffffffffffffffffffffffffffffffffffffffff16630dfe16816040518163ffffffff1660e01b815260040160206040518083038186803b15801561121357600080fd5b505afa158015611227573d6000803e3d6000fd5b505050506040513d602081101561123d57600080fd5b81019080805190602001909291905050509050600080600360009054906101000a900473ffffffffffffffffffffffffffffffffffffffff1673ffffffffffffffffffffffffffffffffffffffff168373ffffffffffffffffffffffffffffffffffffffff16146112af5783856112b2565b84845b9150915060006112cd6103e58961153190919063ffffffff16565b905060006112e4838361153190919063ffffffff16565b9050600061130f836113016103e88861153190919063ffffffff16565b6115b790919063ffffffff16565b9050600081838161131c57fe5b049050600080600360009054906101000a900473ffffffffffffffffffffffffffffffffffffffff1673ffffffffffffffffffffffffffffffffffffffff168973ffffffffffffffffffffffffffffffffffffffff161461137f57826000611383565b6000835b915091508b73ffffffffffffffffffffffffffffffffffffffff1663022c0d9f8383600160009054906101000a900473ffffffffffffffffffffffffffffffffffffffff16600067ffffffffffffffff811180156113e057600080fd5b506040519080825280601f01601f1916602001820160405280156114135781602001600182028036833780820191505090505b506040518563ffffffff1660e01b8152600401808581526020018481526020018373ffffffffffffffffffffffffffffffffffffffff16815260200180602001828103825283818151815260200191508051906020019080838360005b8381101561148b578082015181840152602081019050611470565b50505050905090810190601f1680156114b85780820380516001836020036101000a031916815260200191505b5095505050505050600060405180830381600087803b1580156114da57600080fd5b505af11580156114ee573d6000803e3d6000fd5b5050505050505050505050505050505050565b61152c82828573ffffffffffffffffffffffffffffffffffffffff1661163f9092919063ffffffff16565b505050565b60008083141561154457600090506115b1565b600082840290508284828161155557fe5b04146115ac576040517f08c379a0000000000000000000000000000000000000000000000000000000008152600401808060200182810382526021815260200180611a026021913960400191505060405180910390fd5b809150505b92915050565b600080828401905083811015611635576040517f08c379a000000000000000000000000000000000000000000000000000000000815260040180806020018281038252601b8152602001807f536166654d6174683a206164646974696f6e206f766572666c6f77000000000081525060200191505060405180910390fd5b8091505092915050565b6116dc8363a9059cbb60e01b8484604051602401808373ffffffffffffffffffffffffffffffffffffffff16815260200182815260200192505050604051602081830303815290604052907bffffffffffffffffffffffffffffffffffffffffffffffffffffffff19166020820180517bffffffffffffffffffffffffffffffffffffffffffffffffffffffff83818316178352505050506116e1565b505050565b6060611743826040518060400160405280602081526020017f5361666545524332303a206c6f772d6c6576656c2063616c6c206661696c65648152508573ffffffffffffffffffffffffffffffffffffffff166117d09092919063ffffffff16565b90506000815111156117cb5780806020019051602081101561176457600080fd5b81019080805190602001909291905050506117ca576040517f08c379a000000000000000000000000000000000000000000000000000000000815260040180806020018281038252602a815260200180611a23602a913960400191505060405180910390fd5b5b505050565b60606117df84846000856117e8565b90509392505050565b60606117f3856119ee565b611865576040517f08c379a000000000000000000000000000000000000000000000000000000000815260040180806020018281038252601d8152602001807f416464726573733a2063616c6c20746f206e6f6e2d636f6e747261637400000081525060200191505060405180910390fd5b600060608673ffffffffffffffffffffffffffffffffffffffff1685876040518082805190602001908083835b602083106118b55780518252602082019150602081019050602083039250611892565b6001836020036101000a03801982511681845116808217855250505050505090500191505060006040518083038185875af1925050503d8060008114611917576040519150601f19603f3d011682016040523d82523d6000602084013e61191c565b606091505b509150915081156119315780925050506119e6565b6000815111156119445780518082602001fd5b836040517f08c379a00000000000000000000000000000000000000000000000000000000081526004018080602001828103825283818151815260200191508051906020019080838360005b838110156119ab578082015181840152602081019050611990565b50505050905090810190601f1680156119d85780820380516001836020036101000a031916815260200191505b509250505060405180910390fd5b949350505050565b600080823b90506000811191505091905056fe536166654d6174683a206d756c7469706c69636174696f6e206f766572666c6f775361666545524332303a204552433230206f7065726174696f6e20646964206e6f742073756363656564a264697066735822122006c9fbc62606203cf7546ff9aa4cfd2b102ebf8a90fef69f009ec25fa4ef974564736f6c634300060c0033",
  "immutableReferences": {},
  "source": "pragma solidity 0.6.12;\n\nimport \"./lib/token/ERC20/IERC20.sol\";\nimport \"./lib/token/ERC20/SafeERC20.sol\";\nimport \"./lib/math/SafeMath.sol\";\nimport \"./lib/ezzc/interfaces/IEZZCERC20.sol\";\nimport \"./lib/ezzc/interfaces/IEZZCPair.sol\";\nimport \"./lib/ezzc/interfaces/IEZZCFactory.sol\";\n\n\ncontract SushiMaker {\n    using SafeMath for uint256;\n    using SafeERC20 for IERC20;\n\n    IEZZCFactory public factory;\n    address public bar;\n    address public sushi;\n    address public weth;\n\n    constructor(IEZZCFactory _factory, address _bar, address _sushi, address _weth) public {\n        factory = _factory;\n        sushi = _sushi;\n        bar = _bar;\n        weth = _weth;\n    }\n\n    function convert(address token0, address token1) public {\n        // At least we try to make front-running harder to do.\n        require(msg.sender == tx.origin, \"do not convert from contract\");\n        IEZZCPair pair = IEZZCPair(factory.getPair(token0, token1));\n        pair.transfer(address(pair), pair.balanceOf(address(this)));\n        pair.burn(address(this));\n        uint256 wethAmount = _toWETH(token0) + _toWETH(token1);\n        _toSUSHI(wethAmount);\n    }\n\n    function _toWETH(address token) internal returns (uint256) {\n        if (token == sushi) {\n            uint amount = IERC20(token).balanceOf(address(this));\n            _safeTransfer(token, bar, amount);\n            return 0;\n        }\n        if (token == weth) {\n            uint amount = IERC20(token).balanceOf(address(this));\n            _safeTransfer(token, factory.getPair(weth, sushi), amount);\n            return amount;\n        }\n        IEZZCPair pair = IEZZCPair(factory.getPair(token, weth));\n        if (address(pair) == address(0)) {\n            return 0;\n        }\n        (uint reserve0, uint reserve1,) = pair.getReserves();\n        address token0 = pair.token0();\n        (uint reserveIn, uint reserveOut) = token0 == token ? (reserve0, reserve1) : (reserve1, reserve0);\n        uint amountIn = IERC20(token).balanceOf(address(this));\n        uint amountInWithFee = amountIn.mul(997);\n        uint numerator = amountInWithFee.mul(reserveOut);\n        uint denominator = reserveIn.mul(1000).add(amountInWithFee);\n        uint amountOut = numerator / denominator;\n        (uint amount0Out, uint amount1Out) = token0 == token ? (uint(0), amountOut) : (amountOut, uint(0));\n        _safeTransfer(token, address(pair), amountIn);\n        pair.swap(amount0Out, amount1Out, factory.getPair(weth, sushi), new bytes(0));\n        return amountOut;\n    }\n\n    function _toSUSHI(uint256 amountIn) internal {\n        IEZZCPair pair = IEZZCPair(factory.getPair(weth, sushi));\n        (uint reserve0, uint reserve1,) = pair.getReserves();\n        address token0 = pair.token0();\n        (uint reserveIn, uint reserveOut) = token0 == weth ? (reserve0, reserve1) : (reserve1, reserve0);\n        uint amountInWithFee = amountIn.mul(997);\n        uint numerator = amountInWithFee.mul(reserveOut);\n        uint denominator = reserveIn.mul(1000).add(amountInWithFee);\n        uint amountOut = numerator / denominator;\n        (uint amount0Out, uint amount1Out) = token0 == weth ? (uint(0), amountOut) : (amountOut, uint(0));\n        pair.swap(amount0Out, amount1Out, bar, new bytes(0));\n    }\n\n    function _safeTransfer(address token, address to, uint256 amount) internal {\n        IERC20(token).safeTransfer(to, amount);\n    }\n}\n",
  "sourcePath": "/ezroot/users/ezzc/asa-Q/asa/nodejs/swap/contracts/SushiMaker.sol",
  "compiler": {
    "name": "solc",
    "version": "0.6.12+commit.27d51765.Emscripten.clang"
  },
  "schemaVersion": "3.2.5",
  "updatedAt": "2020-09-30T02:12:36.258Z",
  "devdoc": {
    "kind": "dev",
    "methods": {},
    "version": 1
  },
  "userdoc": {
    "kind": "user",
    "methods": {},
    "version": 1
  }
}